:1010000000000420B5120000DD1200003D5E00006B
:10101000E1120000E3120000E512000000000000F1
:10102000000000000000000000000000E7120000C7
:10103000E912000000000000EB120000ED120000B9
:10104000D9A90000EF120000E9A90000EF1200008A
:10105000EF120000EF12000021A30000EF120000C9
:10106000EF120000EF120000EF120000EF1200007C
:10107000EF120000EF120000EF120000EF1200006C
:10108000EF1200008D2D0000EF120000EF120000A3
:101090002D2E0000EF120000EF120000EF120000F2
:1010A000EF120000EF120000EF120000EF1200003C
:1010B000EF120000EF12000000000000000000002E
:1010C000EF120000EF120000EF120000EF1200001C
:1010D000EF120000EF120000EF120000ED9300008D
:1010E000EF120000EF12000075EC0000000000009D
:1010F00000000000EF12000000000000EF120000EE
:1011000000000000000000000000000000000000DF
:1011100000000000000000000000000000000000CF
:1011200000000000000000000000000000000000BF
:1011300000000000000000000000000000000000AF
:10114000000000000000000000000000000000009F
:10115000000000000000000000000000000000008F
:10116000000000000000000000000000000000007F
:10117000000000000000000000000000000000006F
:10118000000000000000000000000000000000005F
:10119000000000000000000000000000000000004F
:1011A000000000000000000000000000000000003F
:1011B000000000000000000000000000000000002F
:1011C000000000000000000000000000000000001F
:1011D000000000000000000000000000000000000F
:1011E00000000000000000000000000000000000FF
:1011F00000000000000000000000000000000000EF
:1012000010B5054C237833B9044B13B10448AFF340
:1012100000800123237010BDD002002000000000D8
:10122000A479010008B5034B1BB103490348AFF390
:10123000008008BD00000000D4020020A479010055
:10124000154B002B08BF134B9D46A3F5803A002198
:101250008B460F461348144A121A10F098FE0F4B93
:10126000002B00D098470E4B002B00D09847002051
:10127000002104000D000D48002802D00C48AFF3F7
:10128000008010F009FE200029000AF015FA10F085
:10129000EFFD00BF00000800000004200000000077
:1012A00000000000D002002068350020000000008F
:1012B000000000000649074A074B9B1A03DD043B68
:1012C000C858D050FBDC0AF003FBFFF7B9FF000061
:1012D000AC7A010008000020D0020020FEE7FEE703
:1012E000FEE7FEE7FEE7FEE7FEE7FEE7FEE7FEE7D6
:1012F000F0B595B0002415460F4608461E4606F088
:1013000019FB384623460895082205A91A9D099617
:101310000D950A948DF82C400C9406F065FB9DF811
:1013200014308DF81140DDE9061003F00302012AA4
:10133000CDE9020127D0022A04D0384606F0FEFA91
:1013400015B0F0BDBDF81650C3F3C2038DF81030D0
:10135000AD090826082D2C4628BF0824334622460E
:101360000EA9384606F040FB2D1B214608AB02AA09
:101370000EA8264401F004FC002DEBD1384606F0FF
:10138000DDFA15B0F0BDBDF81460059DC6F38316F7
:10139000C3F3C204B2000EA9384608238DF81040EA
:1013A000C5F3952506F020FB08AB324628460EA96A
:1013B000009302AB01F03EFB384606F0BFFA15B0D1
:1013C000F0BD00BF014B01221A70704730030020AE
:1013D000704700BF00B583B0044B0093044A40231C
:1013E000FFF786FF03B05DF804FB00BFF5130000B4
:1013F000F002002038B50E480E4D03780E4CEB5C21
:101400000025D2B2257053B90C3009F071FD58B9DE
:101410000A4B1B7813B12378002BFCD038BD043065
:1014200009F0EAFF0028F3D001F056FCF0E700BF16
:10143000080000206834002030030020EC02002067
:1014400070B51348134A0378D35C88B0DBB90C300D
:1014500009F0D0FC104D0FCD6C460FC495E80F007D
:1014600008AD062645F8206D84E80F0029460022C5
:10147000074806F0CBFC08B101F02EFC074B002218
:101480001A7008B070BD043009F036FFE2E700BF03
:10149000080000206834002078320100EC020020AF
:1014A00070B50D4D0FCD88B06C460FC495E80F0098
:1014B00008AD062645F8206D84E80F002946074A46
:1014C000074806F0A3FC08B101F006FC054B012219
:1014D0001A7008B070BD00BF78320100C51300005B
:1014E00008000020EC02002008B5FFF7D9FF042116
:1014F000034801F013FA034B01225A7108BD00BFE3
:10150000387A01001C000020064B8B6004284FF045
:101510000003CB604B609CBF034B53F820300B6043
:10152000704700BFB0340100D4340100C368DB68E9
:1015300000225A71704700BFC368DB6801225A71EC
:10154000704700BF30B40E4B0E4D0F4CED1A002209
:101550002D09C1E90242C1E900220BD003EB0515B8
:10156000DC682479FF2C02D0904205D00132103380
:10157000AB42F5D130BC70479B680B6030BC704704
:10158000387A0100487A0100E83401000129034655
:1015900004D08168D1F83C11890704D5002218468F
:1015A000114605F073BC00B5D2E90031054A83B09D
:1015B000CDE90021044A022105F09CF903B05DF851
:1015C00004FB00BF74330100683301008368D3F863
:1015D0003C319B0733D42DE9F0471B4C1B4E361B87
:1015E000360982B028D00746DFF868A0DFF8689097
:1015F000DFF8688004EB06160CE06D79CDF804C0C6
:10160000002D0CBF55464D460095103405F072F97B
:10161000A64211D0D4E902E595F804C0BCF1FF0F51
:10162000734642464FF008013846E6D1084A103466
:1016300005F060F9A642EDD102B0BDE8F0870022C6
:10164000114605F023BC00BF387A0100487A01003A
:10165000A0330100943301008C330100C03301003A
:101660008368D3F83C319B0703D4044A022105F078
:1016700041B90022114605F009BC00BFE433010066
:101680008368D3F83C319B0703D4044A022105F058
:1016900031B90022114605F0F9BB00BFE433010067
:1016A000F0B5324C85B004F5836004F06FFD04F2B0
:1016B000144004F06BFDD4E9013703EA0702D01CA3
:1016C00004EB800114F8200010F0040044D003F172
:1016D000020C0E7806F00306012E654635D0022E68
:1016E00002F1030621D004EB86010028F1D104EBBE
:1016F00082020133D26801923B4004EB830302F083
:101700000302012ADE6829D0022A23D1BDF806305F
:101710009B090333360C05EB9305154804F042FD95
:1017200000B16560304605B0F0BD4B880CEB9313FB
:1017300007EA0302D11C03F1020C14F821006546EC
:1017400004EB810100F00400CFE70B88C3F383139F
:101750006344EDE70026E0E79D1CC8E7BDF80430D0
:10176000C3F38313360C1D44D7E700BFCC0400201D
:10177000E00800202DE9F0410F4C104D52F8046CA8
:101780002D1B2D0907460FD004EB051502E0103480
:10179000AC4209D0A168304610F03AFD0028F6D1DD
:1017A000E3685871BDE8F08133463846044A0221A7
:1017B000BDE8F04105F09EB8387A0100487A010092
:1017C000503301002DE9F041104C114D52F8046CDA
:1017D0002D1B2D09074610D004EB051502E010342F
:1017E000AC420AD0A168304610F012FD0028F6D1B4
:1017F000E36801225A71BDE8F08133463846054A54
:101800000221BDE8F04105F075B800BF387A01004B
:10181000487A01005033010070B4104A104E114C48
:10182000921B0023D208C1E902434B600CD00E4D3D
:101830002C88A04204D10CE035F82340A04206D009
:1018400001339A42F8D100220A6070BC704706EB5F
:10185000C30632680A6070BC704700BF387A010066
:10186000B0790100B0340100280200202DE9F04FCA
:10187000CB683E4EDFF820915B79A6EB090685B078
:101880008B46F6088046002B6BD0394A394B08212D
:10189000404605F02FF8384A0821404605F02AF85E
:1018A00076B3364DDFF8F4A0B70000240023EA5ADF
:1018B000A2423AD004339F42F9D15146002335F871
:1018C0002320A24241D001339E42F8D10020844619
:1018D000D646002335F82320A24223D001339E426E
:1018E000F8D1002384450ED8254A0292CDE9001E86
:1018F0000134244A0821404604F0FCFFA642D5D119
:1019000005B0BDE8F08F204A0292CDE9001E0134F7
:101910001C4A0821404604F0EDFFB442C6D105B090
:10192000BDE8F08F59F83330DCE7DBF80C201749BD
:101930001279595802EB4202072393400B40D340DF
:10194000DBB2134A52F82310B8E709EBC30393F84C
:1019500006C00F4B6046032828BF032053F820E041
:10196000B7E70C4A022104F0C5FF8EE7387A010080
:10197000203401001434010040340100280200200A
:10198000E033010080340100983401006C02002033
:10199000C034010000340100B0790100F8330100C7
:1019A00013460A46C168FFF761BF00BF2DE9F04743
:1019B000124C134D52F8046C2D1B2D09804615D086
:1019C0001746894604EB051502E01034A5420DD0F8
:1019D000A168304610F01CFC0028F6D13B464A4670
:1019E00021464046BDE8F047FFF740BF334640463A
:1019F000044A0221BDE8F04704F07CBF387A0100B8
:101A0000487A0100503301002DE9F04F8E4B8F4C86
:101A100052F8049CA3EB04085FEA181885B0064648
:101A200011D017460D4604EB081802E01034A0450B
:101A300009D0A168484610F0EBFB0028F6D15DB94B
:101A400005B0BDE8F08F824A4B463046022105B012
:101A5000BDE8F04F04F04EBFE3687E49386893F864
:101A60000490072210F0E6FB002866D1012D00F05B
:101A7000DE80DFF80C8204460A2258F8041B7868DE
:101A800010F0D8FB58B10134052CF5D17B68724AAF
:101A90003046022105B0BDE8F04F04F02BBFE3B2A1
:101AA000022D019340F0BF806C4C6D4BA3EB0408FA
:101AB0005FEAD8082746C3D009EB490307229A40BA
:101AC0000292019ADFF8A4A10194DFF8A4914FEAF1
:101AD000880802FA03FB0025144609E0019B53F82D
:101AE000153004F007FF0435A84507F10807A7D013
:101AF000BB79A3424A464FF002013046EED355F877
:101B00000A20029982EA0B030B405340C3F3C2023E
:101B1000C3F382118A4238BF0A4603F007018A42A2
:101B200038BF0A464F4945F80A30C3F342206918C6
:101B3000824238BF02464A80D5E708224A493868BF
:101B400010F078FB00287AD1012D0190ACD0012350
:101B500003F18043013B09EB4909A7F1040A07EBB4
:101B6000830707233D4C3E4A03FA09F30293019B86
:101B7000A2EB04084FEAD80803FA09F3B3460AEBCC
:101B8000850A46460393A04657F8044F002E43D0DB
:101B9000C146002504E00135AE4209F108093AD0FA
:101BA0002022214658F8350010F044FB0028F2D1DD
:101BB000AE4230D099F80620019B9A4223D32B4C99
:101BC000039B54F825200298264953400340534074
:101BD000C3F3C202C3F38210824238BF024603F04D
:101BE0000700824238BF0246C3F3422001EB850161
:101BF000824238BF024644F825304A80BA45C3D1F4
:101C000005B0BDE8F08FD9F80030194A02215846D6
:101C100004F070FEF2E73C68164A2346022158465B
:101C200004F068FEEAE77FF60BAF022390E7124A62
:101C30003046022105B0BDE8F04F04F05BBE3B68C2
:101C40000E4A304625E700BF487A0100387A010085
:101C500050330100B832010030330100B079010087
:101C6000387A010028020020D83201006C020020DE
:101C7000F83201001C330100C0320100E0320100E3
:101C8000C034010001B970472DE9F04FC368DB682B
:101C900085B08946174683467A4910681D79072220
:101CA00010F0C8FA00286ED1B9F1010F00F0DE8003
:101CB000754E04460A2256F8041B786810F0BAFAEA
:101CC00058B10134052CF5D17B68704A5846022181
:101CD00005B0BDE8F04F04F00DBEE3B2B9F1020F5C
:101CE000019340F0C0806A4C6A4F3F1BFF082646B4
:101CF00046D0019B029405EB45051A46AA404FF0D9
:101D0000070A0AFA05FADFF89891DFF8988101923C
:101D1000BF0000251C4609E0029B53F8153004352E
:101D200004F0E8FDAF4206F1080629D0B379A342DA
:101D300042464FF002015846EED355F80920019B68
:101D4000534003EA0A035340C3F3C202C3F38211B0
:101D50008A4238BF0A4603F007018A4238BF0A4662
:101D60004D4945F80930C3F342206918824205F114
:101D7000040538BF0246AF424A8006F10806D5D1B5
:101D800005B0BDE8F08F08224449386810F052FAD7
:101D9000002873D1B9F1010F0190A4D0012303F100
:101DA0008043013B05EB45053A1F07EB83070723FB
:101DB000AB40374C374E0293019B361BAB4002EBD6
:101DC0008909F6080393A04657F8044F002E43D024
:101DD000C246002504E00135AE420AF1080A3AD0B5
:101DE0002022214658F8350010F024FA0028F2D1BC
:101DF000AE4230D09AF80620019B9A4223D3284C59
:101E0000039B54F825200298234953400340534034
:101E1000C3F3C202C3F38210824238BF024603F00A
:101E20000700824238BF0246C3F3422001EB85011E
:101E3000824238BF024644F825304A80B945C3D1B2
:101E400005B0BDE8F08FDAF80030164A0221584696
:101E500004F050FDF2E73C68134A2346022158463D
:101E600004F048FDEAE78BD9022398E70F4A584669
:101E7000022105B0BDE8F04F04F03CBD3B680C4AC0
:101E800024E700BFB8320100C03401003033010044
:101E9000B0790100387A010028020020D832010010
:101EA0006C020020F83201001C330100C032010036
:101EB000E03201002DE9F84F234B24480022FF2196
:101EC000C3F818249960C3E90022C3F8142483F8E6
:101ED000202405F0EBFC814610B14846BDE8F88FA0
:101EE000DFF87C801A4F1B48A7EB080705F070FE4F
:101EF000FF08F2D0DFF860B04D460026344608EB0C
:101F0000C50AA5424FF0140208D058F83410DAF888
:101F1000000010F08FF90028C8BF01360134A74235
:101F2000EFD12BF825600135BD42E6D10A4B0B49B4
:101F30000BEB850500225A8004339D4241F8042BA7
:101F4000F9D14846BDE8F88FCC040020887A01001A
:101F5000387A0100A4340100280200206C0200201D
:101F6000B079010021B9124B03EBC0000068704743
:101F7000104A0F49521AD20815D030B40E4D2B8892
:101F8000834212D0002303E035F82340844205D079
:101F900001339A42F8D1002030BC704701EBC300F6
:101FA000006830BC7047104670470846F8E700BF2D
:101FB000B0790100387A010028020020094B01396C
:101FC00003EBC00003290BD8DFE801F00208060488
:101FD00002207047407970470079704704207047AD
:101FE00000207047B07901002DE9F843DFF8D89060
:101FF000074600208846D9F8084003F00DFFD9E9CC
:102000000132D9F80060134401339B1B012B56D8D1
:1020100009F21C450121284604F092F8FFF740FB25
:102020000146284604F08CF8D9E90132D9F80010AD
:10203000134401335B1A012BECD90A400332052308
:102040000231002049F82230C9F8001003F0ECFEFC
:1020500000211C4804F05EF880F31000731C23403C
:1020600009EB830300043440033440EA1740D8608E
:1020700019F8243067F3C50309F8243039F82430FF
:102080006FF3891329F8243059F8242068F39F222C
:102090001346012161F301036FF3820349F8242001
:1020A00009F8243099F820341BB906E000F00EF846
:1020B00018B1D9E900329A42F8D1BDE8F883314627
:1020C000BBE700BFE8080020CC0400202DE9F04F5A
:1020D0009E4C002385B0C4F81834BFF34F8FD4E969
:1020E000015605EA0602D31C04EB830114F82330E1
:1020F000580719D527680B7803F00303012B3DD04F
:10210000022B03D14B88023505EB931506EA050235
:10211000D4F81804D31C04EB830128B9AF423ED98C
:1021200014F823305B07E6D404EB82026B1CD26800
:102130000192334004EB830302F00302DB68029355
:10214000022A05F1020800F0A380012A2BD0D4F85E
:1021500010543DB12B6828469B689847EB681D6872
:10216000002DF7D17A4B5B88012B0DD8D4E90030D4
:10217000C01A18BF012005B0BDE8F08F0B880235EA
:10218000C3F383131D44C1E7724B73487349C01AEC
:10219000C008000440F00200FFF726FFE6E7676092
:1021A00005B0BDE8F08FBDF804706D48C7F3831328
:1021B000062B28BF0623991C63F389178900ADF805
:1021C000047005F075FBC7F3C20781460028BED036
:1021D00005F0B0FB0023082201A9484605F0D0FB1A
:1021E000BDF8043013F4707F00F0AE806FF0010B87
:1021F000ABEB050B082506EA080103312B46042248
:1022000004EB8101484605F0BBFBBDF8043008F142
:10221000010A0BEB0A02C3F383139342D04605F184
:102220000405E8D8D4F81834002B77D1D4F810542A
:10223000FDB1DFF834810726EB685A79B2B11A791B
:10224000BDF8080002EB420158F8200006FA01F23E
:10225000052F02EA000208BF0327CA40BA4205D38D
:102260002B6849461B6828469847EB681D68002D77
:10227000E2D1484605F062FB002003F0CDFDD4F822
:1022800018340BB9C4F804A0002003F0CDFD6DE7AD
:10229000BDF8063032489DF804704FEA931A55464F
:1022A000A02D28BFA02565F38F1305F10801ADF817
:1022B000063005F0FDFAC7F3C207814600283FF457
:1022C00046AF26EA080B0BF1010B05F033FB4FEA92
:1022D0008B0B0023082201A9484605F051FB5D4500
:1022E00027D9EBB2BBF1000F1CD006EA0801A3EB23
:1022F0000B03033104EB8101DDB25A460823484643
:1023000005F03EFB2A460BF108031649484605F046
:1023100037FB0AF1030A08EB9A0A83E7484605F0FF
:102320000DFB23E72A4608230E49484605F028FB03
:10233000EFE706EA0801033104EB81012A4608238E
:10234000484605F01DFBE4E7C2466BE7CC040020DD
:1023500040020020B0790100E07901003036010030
:10236000887A0100D80400206C0200202DE9F04793
:10237000DFF8E4A00746002091468846DAF80840D6
:1023800003F04AFDDAE90132DAF800601344013360
:102390009B1B022B5CD80AF21C450121284603F046
:1023A000CFFEFFF77DF90146284603F0C9FEDAE9C2
:1023B0000132DAF80010134401335B1A022BECD916
:1023C0000A4003320331452300204AF82230CAF87C
:1023D000001003F029FDB31C23400AEB8303002106
:1023E0001C48C3F80C9003F095FE80F31000731C9A
:1023F00023400AEB830300043440033440EA1740CF
:10240000D8601AF8243067F3C5030AF824303AF884
:102410002430012161F389132AF824305AF824204A
:1024200068F39F22134661F301036FF382034AF8B6
:1024300024200AF824309AF820341BB906E0FFF76C
:1024400045FE18B1DAE900329A42F8D1BDE8F087CA
:102450003146B5E7E8080020CC0400202DE9F84F0C
:102460003D4C8046002093469A46A568894603F075
:10247000D3FCD4E90132276813440133DB1B042B5E
:1024800067D804F21C460121304603F059FEFFF7DD
:1024900007F90146304603F053FED4E901322168C2
:1024A000134401335B1A042BEDD90A400332053182
:1024B000C523002044F82230216003F0B5FCB81C8D
:1024C000FA1C28402A403B1D2B4004EB800004EB03
:1024D000820204EB8303C0F80CB00021C2F80CA008
:1024E0001E480A9ADA6003F015FE80F310007B1C88
:1024F0002B4004EB830300043D40033540EA1840C1
:10250000D86014F8253068F3C50304F8253034F892
:102510002530032262F3891324F8253054F825204E
:1025200069F39F221346012161F301036FF38203D4
:1025300044F8252004F8253094F820341BB906E02F
:10254000FFF7C4FD18B1D4E900329A42F8D1BDE8D2
:10255000F88F3946A9E700BFCC040020E808002026
:102560002DE9F04F85B0444C0E9EA5680296CDE94A
:1025700000238046994600200F9B039392468B468A
:1025800003F04AFCD4E90132276813440133DB1B12
:10259000052B6FD804F21C460121304603F0D0FD14
:1025A000FFF77EF80146304603F0CAFDD4E9013258
:1025B0002168134401335B1A052BEDD90A4003321D
:1025C000063140F20513002044F82230FE1C216041
:1025D00003F02AFCB91C29402E403A1D2A4004EB86
:1025E000810104EB86067B1D2B4004EB8202C1F8BF
:1025F0000CA004EB8303C6F80C900E9ED66000215D
:102600000F9A1E48DA6003F085FD80F310007B1CF2
:102610002B4004EB830300043D40033540EA18409F
:10262000D86014F8253068F3C50304F8253034F871
:102630002530042262F3891324F8253054F825202C
:102640006BF39F221346012161F301036FF38203B1
:1026500044F8252004F8253094F820341BB906E00E
:10266000FFF734FD18B1D4E900329A42F8D105B031
:10267000BDE8F08F3946A1E7CC040020E80800202F
:102680002DE9F04F87B0CDE900239946119B4C4CC2
:102690000393129B109E04938046139B0593002086
:1026A0009246A56802968B4603F0B6FBD4E9013248
:1026B000276813440133DB1B072B7FD804F21C4629
:1026C0000121304603F03CFDFEF7EAFF01463046AB
:1026D00003F036FDD4E901322168134401335B1A5B
:1026E000072BEDD90A400332083140F28513002050
:1026F00044F82230216003F097FBBB1C2B4004EB15
:102700008303F91C07F1040CC3F80CA029400CEA60
:10271000050C7E1DFB1D2B402E4004EB810104EBBC
:102720008C0CBA1D04EB830E2A40109BC1F80C9050
:1027300004EB8606CCF80C3004EB8202119BF360AC
:10274000129BD3600021139B1E48CEF80C3003F07F
:10275000E1FC80F310007B1C2B4004EB830300049E
:102760003D40033540EA1840D86014F8253068F33E
:10277000C50304F8253034F82530062262F38913A6
:1027800024F8253054F825206BF39F2213460121AD
:1027900061F301036FF3820344F8252004F8253028
:1027A00094F820341BB906E0FFF790FC18B1D4E987
:1027B00000329A42F8D107B0BDE8F08F394691E770
:1027C000CC040020E80800202DE9F04FDFF830B1FC
:1027D00083B08246002002F1030891460191DBF8A4
:1027E000084003F019FBDBE90121DBF800700A4423
:1027F0004FEA98080132D21B08F10206964279D9B5
:102800000BF21C450121284603F09AFCFEF748FF15
:102810000146284603F094FCDBE90121DBF80000C7
:102820000A440132121A9642ECD8014003310622C2
:10283000064468F39F5200204BF82120CBF800603B
:1028400003F0F2FADBF80850B81C204001352D1ACD
:10285000AD000330A9450BEB80003DD801994A46F5
:102860000FF071FB0021244803F054FC80F31000AA
:102870007A1C22404FEA1A410BEB82023C4003349F
:1028800041EA0040D0601BF824206AF3C5020BF82F
:1028900024203BF824206FF38F122BF824200BEB1D
:1028A00084020220518869F38F1151801BF8242083
:1028B00060F301026FF382020BF824209BF82024BE
:1028C0001AB906E0FFF702FC18B1DBE900219142DA
:1028D000F8D103B0BDE8F08F019E2A4631460FF0D3
:1028E00032FB33462B441946A9EB050203480FF08F
:1028F0002AFBB7E7384698E7E8080020D80400200C
:10290000CC040020044BD3E900239A4201D0FFF706
:10291000DDBB0020704700BFCC0400202DE9F04350
:10292000344DD5F81044064600205CB1E3681A79AE
:10293000824204D151E0DB681A7982424DD01B6893
:10294000002BF8D1F3681871D5F81034002B4BD058
:10295000DA68F36812681A60D5F81034DB681E6014
:10296000254A264FBF1AFF0835D0254D254C02EBCE
:10297000C7094FF0070CF768D37997F80480D5F8AA
:1029800000E08B4208EB480828BF0B4603FA08F327
:1029900083EA0E030CFA08F803EA080383EA0E033D
:1029A000C3F3C20EC3F38218C64538BFC64603F050
:1029B0000708C64538BFC646C3F34228C64502F1DC
:1029C000080238BFC6469145A4F802E045F8043B2A
:1029D00004F10404CFD1BDE8F08301300A28A4D16A
:1029E0004FF0FF30BDE8F083C5F81064F268136063
:1029F000B6E700BFCC040020B0790100387A0100AE
:102A00006C0200202802002038B5094BD3F810448E
:102A1000012583F820544CB1E3685D71236820469A
:102A20005B689847E3681C68002CF5D138BD00BF8F
:102A3000CC0400202DE9F04784B01D460C9C0023F7
:102A400094F80C802373EB8881460E461746002BC2
:102A500040D1297A05290ED06B7AA88873BB404BE8
:102A600053F821A00021FFF77DFA524603463D4965
:102A7000204604F0A7FB062F09D8DFE807F0046A18
:102A80004249525D33004946204604F09BFB2B7AB5
:102A9000052B05D06B7A5BB93349204604F092FBD5
:102AA000204604F083FB84F80C8004B0BDE8F08776
:102AB0002E4A2F49204604F085FBEDE7FFF77EFA0A
:102AC0002C4B2B4953F82020204604F07BFB297A1D
:102AD000A888C4E7254A00922749284A204604F0DE
:102AE00071FBB6E7D6E90410D6E900230390D6E9D6
:102AF00002070291CDE900074946204604F062FB37
:102B0000C5E74946D6E90023204604F05BFBBEE753
:102B1000B168D6E9002320460091494604F052FBF3
:102B2000B5E7D6E90201D6E90023019100904946B4
:102B3000204604F047FBAAE7D6E90371B068D6E95E
:102B400000230291CDE900074946204604F03AFBF4
:102B50009DE732684946204604F034FB97E700BF02
:102B6000283901001C390100BC330100143901006F
:102B7000C8450100C0380100FC380100F4380100EC
:102B8000082900D970472DE9F04F1D4690460023D3
:102B90002A7B2B7385B0B8F80630039207460E46A1
:102BA000002B77D198F80810052911D098F8093032
:102BB000B8F80400002B5FD13A4B53F821400021B4
:102BC000FFF7D0F9224603463749284604F0FAFABF
:102BD000DFF8F4B0DFF8F490002405E03A5D01344A
:102BE00004F0F0FA082C09D0A64249462846F5D848
:102BF0005946013404F0E6FA082CF5D12B49DFF8E8
:102C0000D090DFF8D0B0284604F0DCFA002411E0C0
:102C100017F804A00FF068F950445946437813F0B0
:102C2000970F14BF52462E222846013404F0CAFAE8
:102C3000082C08D0A64249462846E9D8013404F0B9
:102C4000C1FA082CF6D198F80830052B02D098F874
:102C500009305BB91649284604F0B4FA284604F056
:102C6000A5FA039B2B7305B0BDE8F08F114A1249FA
:102C7000284604F0A7FAEDE7FFF7A0F90F4B0E493D
:102C800053F82020284604F09DFA98F80810B8F868
:102C9000040091E7074A009209490A4A284604F0CD
:102CA00091FA7FE7283901001C390100F038010052
:102CB000BC33010014390100C8450100C0380100CF
:102CC000FC380100F4380100EC380100E438010060
:102CD00024390100044C010000B585B000230390A5
:102CE000194601AA44F20100CDE9013300F004F8CD
:102CF00005B05DF804FB00BF70B572B6FFF784FE47
:102D0000FFF700FE0028FBD1184E7388F3B9184B6B
:102D10001B68DB070DD5174C174D00BE7388012BC0
:102D200007D9601BC008000440F002001349FFF7F8
:102D30005BF9BFF34F8F1249124BCA6802F4E0628D
:102D40001343CB60BFF34F8F00BFFDE7094C0A4D23
:102D50000D49601BC008000440F00100FFF744F972
:102D6000034B1B68DA07D9D5D7E700BF4002002024
:102D7000F0ED00E0E0790100B07901008039010058
:102D800000ED00E00400FA0574390100F8B5204AAE
:102D9000204B0024C2F84041C2F84441C2F84841E7
:102DA000C2F84C41C2F80041C2F804411B6833B379
:102DB0001949D2F804550A68AD1A1A6825F07F45FA
:102DC000AA4227460DD8197CDE69AD1A144419B100
:102DD0001F74D3E9052090471EB133461A68AA42F2
:102DE000F1D90E490E4A0B7812789A4208D00D4953
:102DF0000D4A41F823404FF48013C2F80031F8BD6A
:102E0000531CDBB2022B08BF00230B70EFE700BF9F
:102E100000100140A80A0020A40A0020A10A0020F6
:102E2000A00A0020980A002000E100E02DE9F04F00
:102E30008C4A8D4913780978DFF85082994285B021
:102E4000D8F800A000F07B810133DBB2022B08BF71
:102E5000002386481370864A076852F823107B18AF
:102E600023F07F4300240360534626462046A446B1
:102E7000ABB11A688A4200F26581DC68C3F800C011
:102E8000891A1044DA6934B13D1825F07F45C3E949
:102E90000154DE611E4613460124002BE9D1002CAB
:102EA00040F07C8101230093724B734FDFF8E09177
:102EB00043F00103019355464FF0000B46B3D6E9AA
:102EC00001C13446F669694B6C481A68ACEB0203E1
:102ED00023F07F43834248D80B4423600022012122
:102EE000C4E90122E2612174002D5DD02A689A4272
:102EF0004DD2284603E00A689A424FD20846C1697B
:102F00009B1A0029F7D12360E161C461002ED6D15C
:102F100078783978884264D00B4603EB43034C1C25
:102F2000BA7807EBC303E1B28A421A79397004BF59
:102F300000213970022A9C6844D0032A38D0012A23
:102F4000E8D1227C002AE5D1D3F80CC0C4F804C033
:102F50001969A1605869E06099F800009B69A36154
:102F60000028B0D062609446ADE7A2EB0C0222F0DC
:102F70007F428A4202D28B1A2360AFE700230122EC
:102F8000C4E90033A360E36122746DB12A68C8F814
:102F90000040D31A2B60E56125468FE7D21A0A60FC
:102FA0002360E161C461B1E7C8F80040254685E7C8
:102FB000002DAFD000232B74ED69002DFBD1C8F894
:102FC0000050A5E74DB1AC422B4603D1E4E094425A
:102FD0002FD01346DA69002AF9D1002323748842DE
:102FE0009AD1BBF1000F01D1554553D0002D56D1D8
:102FF000234E244A1F4C4FF480334FF400310127F5
:10300000C2F880103C43C6F848334FF43C60C6F821
:1030100008337760A047154BB7604FF43C601D60E4
:10302000A047194B1D70002389F8003005B0BDE89A
:10303000F08FA34200F09180E0692168D8610028F8
:1030400000F086802A4603680B440360AA424FF0D2
:1030500000033978787823741CBF15464FF0010BB4
:10306000BDE700BFA00A0020A10A0020A40A00209A
:10307000980A00209039010088090020FEFF7F0097
:103080000010014000E100E0950A0020A80A00209D
:10309000940A0020009B002BC5D0002DA8D0434BE4
:1030A000434A1C68D2F80465424FD5F800A039782D
:1030B000331B23F07F43DD1CB9B93F493F4B4FF42D
:1030C0008030C2F844034FF00108C2F804034FF403
:1030D0000030C1F8800143F001030860C2F80080AD
:1030E0004FF43C60984787F80080AA452CBF04EB5A
:1030F0000A0363192E4923F07F43C1F84035D1F804
:103100000425921B9B1B22F07F4223F07F43033256
:103110009A4288D9294BD1F80425C1F8402543F0BB
:1031200001034FF43C609847234B4FF40032C3F83F
:103130000021002389F8003005B0BDE8F08F00269B
:103140000096B1E674BB521A1A6001230093ABE6F5
:10315000002339787878237441E71946EA69C8F87A
:10316000002092B9CDE90231114BDFF840C00120B7
:103170009860019B89F80000CCF800204FF43C6077
:103180009847DDE90231D8F80020C8690968D8619C
:1031900000287FF458AF59E72946DFE7C8F8003028
:1031A0009A467FE6C8F800309A46CCE7A40A002089
:1031B00000100140950A002000E100E09039010074
:1031C0002DE9F8431F4D204E204FDFF898804FF433
:1031D00080334FF400324FF001090024C6F88020FC
:1031E00047EA0907C5F848334FF43C60C5F808338F
:1031F000C5F80490B847C5F808904FF43C60C8F88B
:103200000040B847124A134B13491C601470134B0B
:10321000134A0C700B2114701C8099704FF48012AB
:10322000C023C6F8802186F814333260C5F80845FB
:1032300086F81133D5F80435C8F800302046BDE8CB
:10324000F88300BF0010014000E100E09039010068
:10325000950A0020A80A0020A00A00208809002062
:10326000A10A0020A40A002030B583B001A91248A9
:1032700002F0D6FEF0B1114D04462868206000200F
:1032800002F0CAFD0E4B0F481B88026801339B1ADF
:10329000E380002102F03EFFA080002002F0C4FD88
:1032A00001A9054802F0E8FE074B1B6813B101466F
:1032B0002846984703B030BD2C000020B4390100E7
:1032C0004C0B0020680C0020B00A002030B50378B9
:1032D000052B83B0054626D0002B31D12C4B1C6822
:1032E0003CB1236868889B68984723685C68002C19
:1032F000F7D1284C002002F08FFD23687BB101211B
:10330000244802F01DFF002002F08EFD224B1B68B6
:1033100013B1284601219847236803B030BD1F4BE5
:103320006A881A80EBE71E4BD3F88424D3F88034E4
:1033300013F0FF0F04D11B4BD2B2052A08BF1D4664
:1033400001A9194802F06CFE04460028E5D02B685C
:103350000360002002F060FD104B0E481B880268DD
:1033600001339B1AE380002102F0D4FEA0800020EC
:1033700002F05AFD01A90C4802F07EFE064B1B68C4
:10338000002BCAD001462846984703B030BD00BF85
:10339000600C0020680C0020B00A00204C0B0020BC
:1033A00000700240B03901002C00002030B5012827
:1033B00083B030D009D302282BD101A91A4802F0DA
:1033C0002FFE044628B3194D06E001A9164802F065
:1033D00027FE0446E8B1164D28682060002002F060
:1033E0001BFD144B14481B88026801339B1AE380B1
:1033F000002102F08FFEA080002002F015FD01A93F
:10340000094802F039FE0D4B1B6813B101462846EE
:10341000984703B030BD01A9034802F001FE0446FD
:103420000028F6D0064DD7E72C000020AC3901006B
:10343000A43901004C0B0020680C0020B00A0020C9
:10344000A83901002DE9F04F87B006AF00260446E9
:10345000894692469B4647F8106D00E00136626847
:1034600001235568214600223846A8470028F5D197
:103470008DF80600049066B3804605460AE09DF884
:1034800006306768023B7F68B8479DF806301D44E8
:10349000AE421ED962680123576821460DF106022B
:1034A00004A8B84762680123576821460DF1070256
:1034B00004A8B8479DF807304B454FF0000221465D
:1034C00004A8DCD1C24508D008F101085FFA88F8E9
:1034D000D5E7052007B0BDE8F08F109A9DF80630BB
:1034E00013608BF800308BF801906168023B4D68E7
:1034F0000BF102022146A8470020EBE72DE9F0413D
:10350000082382B005464FF484723949394802F0E5
:103510006FFD40B9384805F023FB044640B1204612
:1035200002B0BDE8F0810324204602B0BDE8F0817E
:10353000324A3349334B14700C60482221463248DA
:103540001C600EF024FD2146482230480EF01FFD7D
:10355000002D45D095E807002D4B83E8070000209B
:1035600004F002FC08B185283FD12A4D274F2B7A61
:103570006E68DFF894C005F109044FF0030E1EFBDE
:10358000034E74451FD0F4B16378CBB1A278A21872
:1035900016D003F1FF38114652FA88F8013A01E0DB
:1035A00001310DD012F8010F00F00F03DB0000060F
:1035B0004CBF6344DB1990451D6030685860EFD103
:1035C00003347445DFD102A90B2301F8043D1148EF
:1035D0003368984704460028A1D005F05BFB9EE7BE
:1035E0000B4BC3E900551D72B9E7FFF775FBBCE74C
:1035F000500B00202C000020CD3200006C0C00206D
:10360000580C00205C0C0020BC0A0020040B002099
:10361000B00A00200C3A010010B505F025FC40B1BD
:1036200005F02AFC044620B9054804F0ADFB10B9AA
:1036300010BD082010BDFFF74FFB204610BD00BF96
:10364000A039010005F036BB06F0FABB4FF080430D
:1036500003E0D3F83824D1072BD5D3F838249207C8
:10366000F7D530B583B001A9124802F0D9FC044661
:10367000E8B1114D28682060002002F0CDFB0F4B0F
:103680000F481B88026801339B1AE380002102F077
:1036900041FDA080002002F0C7FB01A9054802F00F
:1036A000EBFC084B1B6813B101462846984703B052
:1036B00030BD70472C000020B83901004C0B0020B1
:1036C000680C0020B00A002010B582B0822301A946
:1036D00012488DF8003002F0A3FCE8B104460098CF
:1036E0002060002002F098FB0D4B0E481B880268FA
:1036F00001339B1AE380002102F00CFDA080002022
:1037000002F092FB01A9054802F0B6FC064B1B68CB
:1037100013B101466846984702B010BD2C00002046
:103720004C0B0020680C0020B00A00202DE9F04F5F
:10373000037881B08246852B00F2B980DFE813F070
:103740003A028B01BA00ED015602D800E000B70042
:10375000FB000E012101B700B700B700B70034012C
:10376000B700B700B700B700B700B700B700B700A1
:10377000B700B700B700B700B700B700B700B70091
:10378000B700B700B700B700B700B700B700B70081
:10379000B700B700B700B700B700B700B700B70071
:1037A000B700B700B700B700B700B700B700B70061
:1037B000B700B700B700B700B700B700B700B70051
:1037C000B700B700B700B700B700B700B700B70041
:1037D000B700B700B700B700B700B700B700B70031
:1037E000B700B700B700B700B700B700B700B70021
:1037F000B700B700B700B700B700B700B700B70011
:10380000B700B700B700B700B700B700B700B70000
:10381000B700B700B700B700B700B700B700B700F0
:10382000B700B700B700B700B700B700B700B700E0
:10383000B700B700B700B700B700B700B700B700D0
:103840004801860057011C02D001D8009C4BDFF8CC
:1038500088929C49D3E900029047D9F80040002C97
:1038600040F09A82DFF86CA2DAF80430002B40F0C6
:10387000A28201F041FF944B1B68002B00F00B83E8
:103880000120924D05F0B8FA2A78931EDBB2062B80
:103890000BD88F49CB5C13B104F052FA2A78022A74
:1038A00000F0F382082A00F0F08201232B7001B0AF
:1038B000BDE8F08F854D2A78931EDBB2062B0BD81E
:1038C0008349CB5C13B104F03BFA2A78022A01D079
:1038D000082A01D105F010FB7E4B5B6803222A7099
:1038E0000BB1022098477C4B1C68002C40F0AE8145
:1038F000734BD3E90002514601B0BDE8F04F1047C9
:10390000827802F00F0312064CBF744A6C4ADB0047
:103910001344D3E90002514690470028C7D09AF8D3
:10392000020000F00F03013B062BC0D801B0BDE838
:10393000F04F05F0FFBB674B5B680BB10820984761
:10394000654B1C68002CB2D0636820461B6851464A
:10395000984723681C68002CF6D1A8E75D4B5B688C
:103960000BB1092098475C4B1C68002C9FD0636802
:1039700020461B685146984723681C68002CF6D1E6
:1039800095E7544B5B680BB10A209847524B1C6873
:10399000002C8CD0636820461B68514698472368EA
:1039A0001C68002CF6D182E74A4B5B680BB10F20F4
:1039B0009847494B1C68002C3FF479AF6368204658
:1039C0001B685146984723681C68002CF6D16EE7A7
:1039D0003E4D2B78062B00F02B82072B02D0052BB7
:1039E0007FF465AF05F092FA02232B705FE7DFF8F2
:1039F000E890D9F80070002F00F0408197F808A0F7
:103A0000BAF1000F00F035814FF00008444607F18D
:103A100009057B68DB6813B12146384698473B7A35
:103A2000A34240F2A3816E78002E00F01981002499
:103A3000234632460AE0AB782A190134D05C05F0FF
:103A400089FFE3B29E4240F20B816A789A42F2D833
:103A500000231B78FFDEDFF88090D9F80070002F7C
:103A600000F0578197F808B0BBF1000F00F04C81CF
:103A70004FF00008444607F109057B68DB6813B185
:103A80002146384698473B7AA34240F26F816E78D0
:103A9000002E00F030810024234632460AE0AB7845
:103AA0002A190134D05C05F055FFE3B29E4240F282
:103AB00022816A789A42F2D800231B78FFDE00BF89
:103AC000040B0020BC3901005C0C00206C0C0020B1
:103AD00098390100B00A0020580C0020BC0A0020D0
:103AE000A44D2B78032B00F0A88105F0CFF9002816
:103AF0003FF4DDAE2B789A1ED2B2062A40F2DD8169
:103B00009D4804F0EFF82B78022B00F0CD81082BB4
:103B100000F0CA8106232B70C9E6964D2B78082B3E
:103B200000F07E819A1ED2B2062A40F2B7819248F6
:103B300004F0D8F82B78022B00F0AA81082B00F0B3
:103B4000A78105232B708D4B5B680BB10320984731
:103B50008B4B5146D3E9000290478A4B1C68002CDE
:103B60003FF4A5AE636820461B685146984723681A
:103B70001C68002CF6D19AE67E4D2B78032B7FF43F
:103B800096AE06F06DF800283FF491AE2B789A1EA1
:103B9000D2B2062A0BD87C498A5C12B104F0D0F864
:103BA0002B78022B00F09281082B00F08F810423E8
:103BB0002B707CE66F4B1B78032B00F05581082B94
:103BC00000F052816D4B5B680BB1002098476F4B42
:103BD0001C68002C3FF46BAE636820461B6851469E
:103BE000984723685C68002CF6D160E6634B5B68FD
:103BF0000BB103209847624B6549D3E90002904717
:103C0000604B1C684CB1624D636820461B682946B6
:103C1000984723681C68002CF6D1564D2B78062B4C
:103C200000F00381082B0ED09A1ED2B2062A40F271
:103C30003E81514804F056F82B78022B03D0082B14
:103C400001D005F063F902232B7030E6636820464B
:103C50001B685146984723681C68002CF6D147E63C
:103C600008F101085FFA88F4A24505F103053FF663
:103C7000D0AE3B681F68002F7FF4C0AE3D4D05F00D
:103C800023FF2A78931EDBB2062B0BD83E49CB5C70
:103C900013B104F055F82A78022A01D0082A01D17C
:103CA00005F02AF9D9F8004000232B704CB1394EA9
:103CB000636820461B683146984723681C68002CBF
:103CC000F6D12F4B3349D3E9000290472B4B5B6869
:103CD0000BB10E2098472B78023BDBB2062B3FF648
:103CE000E6AD294AD35C002B3FF4E1AD01B0BDE85D
:103CF000F04F04F025B808F101085FFA88F45C453C
:103D000005F10305FFF4B9AE3B681F68002F7FF48F
:103D1000A9AE184D01F0E6FC2A78931EDBB2062B03
:103D200079D81949CB5C002B75D0022A03D0082A18
:103D300001D005F0EBF8114B5B6802222A700BB141
:103D4000012098470E4B5146D3E900029047D9F81D
:103D50000040002C3FF4ABAD636820461B68514621
:103D6000984723681C68002CF6D1A0E500235B78F7
:103D7000FFDE00BF6C0C002024000020B00A0020F1
:103D8000040B0020580C0020983901005C0C002026
:103D9000C8390100C03901004E4D636820461B68D8
:103DA0002946984723681C68002CF6D1DFF834A117
:103DB000DAF804300BB10D209847D9F80070002FC5
:103DC0003FF457AD97F80890B9F1000F58D04FF075
:103DD0000008444607F109057B68DB6813B12146FA
:103DE000384698473B7AA342C0D96E78002E3FD020
:103DF00000242346324609E0AB782A190134D05C0E
:103E000005F0A8FDE3B29E4232D96A789A42F3D80F
:103E100000231B78FFDE304803F064FF2A7884E734
:103E200002232B7005F07CF88DE607232B703EE50E
:103E300005F06CF808232B7039E505F011FF002818
:103E40003FF453AE2B789A1ED2B2062A09D82349E2
:103E50008A5C12B103F074FF2B78022B33D0082B4D
:103E600031D004232B7040E61D48FFF75FFCA9E624
:103E700008F101085FFA88F4A14505F10305ABD804
:103E80003B681F68002F9DD1F3E405F035F80CE581
:103E900005F032F855E69AF80800F2E40F498A5C1A
:103EA000002A7FF448AE42E605F026F832E60B49D8
:103EB0008A5C002A7FF4C1AEBBE608498A5C002A0E
:103EC0007FF422AE1CE605F017F8CAE705F014F8F7
:103ED0006DE600BFBC3901002400002098390100C4
:103EE000C4390100B00A002070B5284E82B0346891
:103EF000002301930CB3A588A5B1E388B3F5006F47
:103F00003ABF5A1C92B2012205F1FF3528BF0023A7
:103F100001A8A580E280ADF80630FFF707FC01207C
:103F200002B070BD2046FFF701FC1949194802F0A4
:103F3000E1F80120356002B070BD1549154802F066
:103F4000ABF8044630600028D5D1134B1B6813B979
:103F5000184602B070BD114D01F05EFF2B880E486F
:103F6000B3F5006F39BF5A1C92B2234601220121DA
:103F70002A80ADF8063002F0FBF8002001F054FF73
:103F800001A8FFF7D3FB012002B070BD700C002028
:103F9000AC0A00202C000020680C00204C0B0020F4
:103FA0002DE9F041067A374FDFF8E0C000F109044F
:103FB0004FF0030E1EFB064E21468E4582B01AD0EE
:103FC000D1B14D78002211E08B781344D9420FD043
:103FD00011F8038008F00F03DB0018F0800F14BF06
:103FE0006344DB1901321B68002B46D19542EBD1AB
:103FF00003318E45E4D10021CDB2B542214FDFF827
:104000008CC028D205EB4505651924D06B78F3B137
:10401000AB78EB1818BF4FF0010E05D117E0AB7865
:104020007344EB1812D096461B7803F00F02D200AF
:104030001B064CBF6244D219106043681E6856606C
:104040006E780EF101037645DAB2E8D8067A0131CE
:10405000CDB2B542D6D30C4A13681BB11A681368A7
:10406000002BFBD102A910600B2201F8042D43683C
:104070001B68984702B0BDE8F081112002B0BDE88E
:10408000F08100BF040B0020580C0020BC0A002067
:10409000024B1878003018BF01207047640C0020D4
:1040A00000F00F03072B10B5044604D805F0CCF838
:1040B000204605F04BF82046BDE8104005F06CBBEB
:1040C00005F048BC014B1868704700BF580C002031
:1040D00070B4114B1E68A6B1357A75B1737A8342FC
:1040E00006F1090210D0002303E012F8034F8442C6
:1040F0000BD00133DBB29D42F7D133681E68002E2E
:10410000EAD1304670BC704700230029F9D0304610
:104110000B7070BC704700BF580C002043681146FC
:104120001B68184700F00F03082B0AD802064CBF83
:10413000054A064ADB001344186810B143681B683F
:1041400018471020704700BFBC0A0020040B002055
:1041500038B5094B1C6864B1054602E023681C6849
:104160003CB1636829461B68204698470628F5D06D
:1041700038BD062038BD00BF580C002038B50D46AC
:10418000044604F0E3FE18B1054B1B78022B01D066
:10419000082038BD29462046BDE8384004F0E6BE78
:1041A0006C0C002038B50D46044604F0CFFE18B163
:1041B000054B1B78022B01D0082038BD294620462C
:1041C000BDE8384004F05EBF6C0C0020F8B54368D1
:1041D0009B6805460C4616461BB19847062800D03A
:1041E000F8BD86BB2B7AA3421DD9093504EB4404E4
:1041F0002C4467782FB3354633463A460EE0A37811
:104200006219D65C06F00F03072B30460DD9013535
:1042100005F0C2FAEBB29F4213D962789342EED313
:1042200000231B78FFDE7378FFDE05F00DF83046C3
:1042300004F08CFF0135304605F0AEFAEBB2BB421C
:10424000EBD30020F8BD0720F8BD00BF43681B6911
:1042500003B11847184670472DE9F047304BD3F8A3
:104260000090B9F1000F59D099F808A0BAF1000FE9
:104270004DD04FF00008444609F1090507E008F168
:1042800001085FFA88F4A24505F103053FD9D9F882
:1042900004309B682BB100222146484698470628E7
:1042A000EDD199F80830A34202D800235B78FFDEF5
:1042B0006F78002FE3D0002423463A460EE0AB7817
:1042C0002A19D65C06F00F03072B30460BD90134B0
:1042D00005F062FAE3B29F42D1D96A789342EED3F5
:1042E00000231B78FFDE04F0AFFF304604F02EFF02
:1042F0000134304605F050FAE3B29F42EDD808F1A0
:1043000001085FFA88F4A24505F10305BFD8D9F882
:104310000030D3F80090B9F1000FA5D1BDE8F087C7
:10432000580C00202DE9F8431E4B1F68002F33D096
:1043300097F80890B9F1000F2AD04FF000084446D2
:1043400007F109057B68DB6813B1214638469847B9
:104350003B7AA34222D96E7896B100242346324696
:1043600009E0AB782A190134D05C05F0F3FAE3B226
:104370009E4205D96A789342F3D300231B78FFDE6F
:1043800008F101085FFA88F4A14505F10305D9D8C1
:104390003B681F68002FCBD1BDE8F88300235B7812
:1043A000FFDE00BF580C00202DE9F0410468D04E1C
:1043B0000D7A3570B4F5517F00F089832ED940F223
:1043C0005635AC4200F0858400F2C980B4F5537FC5
:1043D00000F0688440F2458140F25135AC4200F073
:1043E000258400F26E8240F24F35AC4200F05683D5
:1043F000B4F5547F40F0E88201240025002A00F043
:10440000318507795755A3424FF00205057100F237
:104410008B8540F2513303600120C7E140F226371B
:10442000BC4200F0228448D840F21637BC4200F06B
:10443000458340F2678140F21937BC4200F018848E
:1044400000F2FE8140F21737BC4200F0D583B4F58C
:10445000467F40F0B982002A00F0208690F804E000
:1044600001244FF0000C0027A34202F80CE0077172
:1044700040F23F8402EB040C01348CF80070DFF84A
:104480007CC200278CF80070AF4280F0B083092511
:10449000A342057140F24085671C002A00F06D853B
:1044A00005791555BB424FF00404047100F2BF8535
:1044B00040F221330360012078E140F23335AC4211
:1044C00000F0C383B4F54D7FC0F08180B4F54F7F19
:1044D00000F0D38340F2998240F24235AC4200F0C2
:1044E0006B8200F24B8340F24135AC4240F06C826B
:1044F00001250024002A00F07984077917559D4290
:104500004FF02404047180F05684274605F1010E13
:10451000002473455755047140F2438425460EF13B
:10452000010C1024634502F80E50047140F22084FF
:1045300025460CF101070124BB4202F80C5004711E
:1045400040F20784254607EB040C05246345D55546
:10455000047140F2F98325460CF1010798E040F21E
:104560007235AC4200F0A68340F2018140F28335FF
:10457000AC4200F01F83B4F5617FC0F0568240F278
:104580008935AC4200F0108240F28E35AC4200F02A
:104590000B82B4F5617F40F01782002A40F09085CD
:1045A0000124544D0F7D2D682D78AF4200F0F0832B
:1045B0008F7DAF4200F09D84DFF844C14E4F9CF8E0
:1045C00000503F780135EDB28CF800503CE0B4F576
:1045D0004B7F00F08B8200F2988140F22735AC428D
:1045E00000F05282B4F54A7F40F0EE81414C2768DA
:1045F000002A00F071850479964601258EF8004066
:104600003C780F7DA74200F0E3838F7DA74200F046
:10461000BC840024AB42047140F2F2816C1C0AB1EC
:1046200007795755334D91F814C02D682F78BC4544
:1046300000F01982DFF8C0E0DFF8C4C06F788EF8B0
:10464000007000258CF80050BD42C0F0C181DFF839
:10465000ACC035789CF800700137FFB28CF8007060
:1046600012E740F24935AC4200F04D8300F25E8122
:1046700040F24535AC4200F00383B4F5527F40F080
:10468000A381002A00F00285057901274FF0000C74
:104690002424BB4202F80C50047140F24B8307F112
:1046A000010E01257345D455057140F234830EEB9C
:1046B000050C0324634502F80E50047140F2308368
:1046C0000CF1010702F80C40BB4291F816C080F8CB
:1046D00004C040F2DD827D1C0424AB4202F807C016
:1046E000047100F2268440F24F33036001205DE044
:1046F000760C0020780C0020740C0020750C002033
:10470000770C002040F21337BC4200F00882B4F569
:10471000457F80F01C81002C00F0778240F2123738
:10472000BC4240F05181002A00F0368404791470B4
:10473000012B4FF00B04047140F20A844FF0030C7C
:1047400002274FF0010E02F80E40BB4291F814E030
:1047500080F804E040F207830224634502F807E092
:10476000047140F2FB8227460CF10108FDE040F2A3
:104770005935AC4200F00B821AD840F25735AC42A2
:1047800000F0DA81B4F5567F40F01E810124002547
:10479000002A00F08B8307795755A3428D7D057160
:1047A00000F2BF8340F2593303600120BDE8F0817D
:1047B00040F26D35AC4200F0178240F26E35AC42EB
:1047C00040F00281002A00F08E840579944601248D
:1047D0008CF80050C24FC34D3F682D7897F801C048
:1047E000AC4540F20A8197F802C03D44A34215F857
:1047F0000C50057140F24381651C1AB190F804C059
:1048000002F804C03C780F7DA74200F0D9828F7D6A
:10481000A74200F0A8834024AB42047140F2198102
:104820006C1C002A00F0AE8207795755A3424FF066
:104830000005057140F21281171901343D70B0E690
:10484000B4F5487F00F0758140F22137BC4240F05A
:10485000BB80002A00F03D840479154601272C70A6
:104860000D7AA14C2478AC4280F0EE8004EB440534
:1048700001F10904DFF868C214F805E080F804E0EB
:104880002C44BB42CCF8004040F290827C1C002AB1
:1048900000F01B830579D555A3424FF00005057143
:1048A00040F26B828E4F3F6804F1010C1555634551
:1048B0007C78047100F251834FF44A730360012045
:1048C00074E740F25235AC4200F07C8140F255353D
:1048D000AC4279D1002A00F004840779944601257E
:1048E0002424AB428CF80070047140F266812746A4
:1048F0006C1C5755A3424FF00605057100F2238347
:1049000040F257330360012050E740F22D35AC42AE
:1049100000F0858140F22E35AC4255D1002A00F0DE
:10492000D583174604793C70012572E640F24A357A
:10493000AC4200F0D58140F24B35AC4244D1002A64
:1049400000F09983047901274FF0000CBAE600F0DB
:10495000288140F21537BC4236D1002A00F0A083EE
:1049600007794FF001084FF0000C0224434502F88C
:104970000C70047140F2E381274608F1010E022415
:10498000734502F80870047140F2CF810EF1010CFA
:1049900002F80E40634591F819E080F804E040F217
:1049A000AD810CF101045EE501240025002A3FF4ED
:1049B00003AE07795755FFE5002A00F05A830779BF
:1049C0004FF0010E0025A3E5002303601846EDE635
:1049D0000725A34205714DD9671C002A00F0FF810D
:1049E00005791555BB424FF00505057100F290821F
:1049F00040F26E3303600120D8E600231B78FFDE0F
:104A00004FF44F7303600120D0E6B4F54D7F00F002
:104A1000A28040F23535AC42D6D1002A00F0568350
:104A20001446077927700125F3E540F27735AC424B
:104A300002D0B4F55F7FC7D101250024002A3FF4DE
:104A4000EAAE07791755E6E6254A002313601B787E
:104A5000FFDE40F2833303600120A7E64FF4617369
:104A600003600120A2E605259C42057180F04B827F
:104A7000651C3FE540F26D330360012096E640F28D
:104A800072330360012091E6154C2768002A00F07C
:104A9000EE8205794FF0010C002407E7002A00F0B0
:104AA00027830779944601252424AB428CF80070B3
:104AB000047140F2048127466C1CA3E4002A00F034
:104AC000D48207794FF0010E4FF0000857E7002A13
:104AD00000F0E882057901274FF0000C2BE500BFBC
:104AE000780C0020770C0020750C00200124002594
:104AF000002A00F0838207795755A3424FF002073E
:104B0000077140F2DD81651C1755AB424C7E047184
:104B100000F26F8240F22E330360012046E6002A45
:104B200000F0B18204794FF0020C01274FF0000E23
:104B300009E601270024B0E4002A00F0D7820779B3
:104B4000944601258CF800700F7D0771AB4240F24E
:104B5000A4806C1C20E6002A00F0938290F804C028
:104B6000012500240027AB4202F804C0077100F2BF
:104B7000538240F235330360012017E6002A00F02B
:104B80008B8205794FF0010C4FF0000EC9E4002A2A
:104B900000F0A5820579174601243D70C74D2D68A8
:104BA00048E5002A00F0698290F804E04FF0010C1B
:104BB0000027D1E50124002533E640F25633036097
:104BC0000120F3E501240025002A00F05781077930
:104BD0005755A3424FF00505057100F2AF8140F231
:104BE000553303600120E1E501270024F5E640F29A
:104BF000993303600120D9E5002A00F05582047939
:104C00004FF0010C4FF0000EC2E608240471002B97
:104C10007FF489AD40F2123303600120C6E5002A1B
:104C200000F038820779012500246DE7002A00F0A2
:104C300061820779944601250224AB428CF800700A
:104C4000047141D927466C1CC2E701240025002AC3
:104C500000F0F081077957554FF0000C9C4280F826
:104C600004C080F04181651C7CE7012400270EE62A
:104C7000002A40F0E981012401E401240025CEE46A
:104C8000002A00F0058205794FF0010C00275CE452
:104C90004FF453730360012088E54FF456730360AB
:104CA000012083E5002A00F0018290F804C001256C
:104CB000002711E5814C0125276800249DE54FF46C
:104CC00054730360012071E540F252330360012008
:104CD0006CE501240025002A00F0DC80077908E655
:104CE000002A00F0CC8105794FF0010C4FF0000E46
:104CF000DFE440F219330360012057E54FF44673B7
:104D00000360012052E5002A00F0D28104794FF0BF
:104D1000010E0027C5E440F24A330360012045E557
:104D200040F24B330360012040E540F2173303604B
:104D300001203BE540F249330360012036E540F2B3
:104D400016330360012031E54FF4527303600120F4
:104D50002CE540F245330360012027E540F215338E
:104D60000360012022E54FF44573036001201DE537
:104D70004FF451730360012018E540F227330360BC
:104D8000012013E5A34202717FF668AE013408E406
:104D90000D6AA3422D78057140F243812546013406
:104DA00004E640F2433303600120FFE440F226337F
:104DB00003600120FAE440F2423303600120F5E48D
:104DC0000324AB42047140F244812C46013535E6A0
:104DD0000224AB42047140F242816C1C88E6052437
:104DE000BB4204717FF604AE7C1CF3E424249D4294
:104DF0000471E0D26C1C0025A3420571D1D90134A5
:104E00001025A3420571B3D901340125A3420571D0
:104E10009FD92C440525A342057195D90134242539
:104E2000A342057186D901340125A34205717FF69D
:104E300072AF2C440325A34205717FF671AF013494
:104E40008D7D0571A3427FF623AF01340425A34273
:104E500005717FF648AC651C24279D420771BFF49D
:104E60002EAF023402259C420571BFF4D2AA651C04
:104E700002279D420771BFF427AF3C440525A3429A
:104E800005717FF6ACAE651C24279D420771BFF407
:104E900094AE02340625A34205717FF631AD0D7D37
:104EA0000571651C9D42BFF4F8AE02348D7D05711D
:104EB000A3427FF677AC013470E600BF780C002087
:104EC00040F22D330360012070E4A34202717FF6AB
:104ED00054AF894D2F6801347D780571A3427FF668
:104EE000EBAC651CFFF78CBB4FF44D7303600120E6
:104EF0005CE40025A34205713FF650AF40F28E33CB
:104F00000360012052E440F24133036001204DE48C
:104F100002EB070C7C1C5BE44FF448730360012038
:104F200044E41719013438E62F4602EB040C651CE3
:104F300082E602EB050C27460135B5E52F4602EB6C
:104F4000040C651CCCE42F4602EB040C651CF9E54F
:104F500040F213330360012028E402EB0C0E0CF145
:104F60000105FFF74BBB0224AB4204713FF62DAFA6
:104F70004FF45F730360012018E40424BB42047102
:104F80007FF696AA01370D7A6BE40A24AB420471CE
:104F900040F290806C1C5AE60B24012B0471D7D987
:104FA0000324022791F814C080F804C0BB427FF6A6
:104FB000DAAE0227A34207717FF6D0AE0134022792
:104FC000A34207717FF6BBAE01340227A3420771EB
:104FD0007FF6ABAE01344F7E0771A3427FF68EAEF3
:104FE00001340027A34207717FF683AE0134FFF737
:104FF00046BA571901353C70FFF70BBB0225A34297
:1050000005717FF65DAF01344D7E0571A3427FF6D9
:1050100081AD651CFFF7FDBA541901352770FFF704
:10502000F8BA40F2893303600120FFF7BFBBD519FE
:10503000013714E49C420271BFF456AF01340025DD
:10504000A3420571E5D894E5077994460124FFF75A
:1050500014BA40F2773303600120FFF7A7BB4FF487
:105060004B7303600120FFF7A1BB0124ADE70124CE
:1050700032E70124BFE60124E2E6012499E7012496
:10508000D8E60124DBE7022401278BE70124C6E6EA
:105090000124BFE60124B7E70124B1E60124A0E71B
:1050A00001248CE70124B0E6012494E70124CDE635
:1050B0000124B9E640F2333303600120FFF776BBE9
:1050C000174605793D700124FFF76BBA0125FFF7FC
:1050D000A0BA0127FFF7C5BB0125FFF791BA01244C
:1050E0005CE51446CFE60124FFF774BB0024D6E646
:1050F0000024B0E61446BAE6780C00204360CA6982
:105100009A4205D201F12802026000208B677047A5
:105110008A6910B40260C8698C690A6FC01A1C449D
:105120001A44C86100308C6118BF01200A675DF81D
:10513000044B704780B90B681A7B202A0AD110B53E
:105140000722044603F10E0103F118000CF0FBFEE8
:10515000204610BD06207047032070472DE9F0431C
:105160000B7889B00D4606460E2B1ED8DFE803F0FB
:10517000180818181D39221D1D081D1818181800A8
:1051800003680024C3E91E44C3E9204403F1340248
:105190005A671C845C62DC62204609B0BDE8F0837B
:1051A0000024204609B0BDE8F0830624204609B05B
:1051B000BDE8F083037A8978002B38D0827A0930F1
:1051C000002A36D0F27A825C8A42E9D00A06EC786C
:1051D00000F1BB80012CE3D040D3032CE0D00324AA
:1051E000DAE74B78D9094FEA531224D1012ADCD1EE
:1051F000AB780768202B63D0222BD6D1B5F80740B7
:10520000002CD2D1B5F8033097F820203B8402F06F
:10521000010203F001039A42C2D0C269002B00F0E0
:10522000FB80002ABCD002219047B5E700235B78C1
:10523000FFDE1378FFDE12F0030264D0012AB4D13E
:10524000AB78212BB1D1B5F80720072AADD1016881
:10525000681C183100F05AFA04469DE73568012BA6
:1052600005F10C00E2D9727B012A06F10C0372D918
:105270008949B27BCDE905101344AA6A93F80190DD
:10528000002A73D1E96FEB6AAA67C5E91F21002BD9
:1052900000F0BF8005F12C0393E8030005F124031F
:1052A00083E803004846EA6205A9FEF77BFF04464F
:1052B000F369002B3FF470AF3046002198476BE74D
:1052C000B5F80720072A7FF470AF3B73B5F80730B5
:1052D0000024DBB27B7320460E37CDE905730794BB
:1052E00000F09AFD204605A9FEF748FF044630B9B4
:1052F0006A4B049603A9039300F016FD04460020B0
:1053000000F092FD48E703F01F03012B7FF44DAF3F
:10531000AC78062C7FF449AF05A8039200F018FD85
:105320000DF10C0C0746EA782979CDF800C030461B
:105330003B46FEF787F805283FF42EAF3946681C38
:10534000039A00F0E3F9044626E73CB1032C0CBFB6
:105350000024032420E700231B78FFDEF369002BE1
:105360003FF41EAF30460121984715E7D5F8844039
:10537000686A05F1340CA24228BF22466146904675
:1053800067460CF0E0FDEA6FE96AA4EB080307EB5F
:10539000080C42440020C5E91DC3C5E91F020029CD
:1053A00061D005F12C0797E8030005F124044FF0C4
:1053B000000884E80300C5F82C80002B55D0AA6AA9
:1053C00093420ED25AE097E8030084E80300AB6FE3
:1053D000C5F82C80002B48D0AA6AD5F874C09A4230
:1053E0004CD86146686A0CF0AEFDD5E91D32A96A59
:1053F000C5F880100B44521AC5E91D32F36913B188
:10540000002130469847EB6A002BDCD16B62002408
:105410004EE700246C624BE70AB103219047337AD0
:10542000012B7FF603AF737B06F10C04002B93D0A6
:10543000B37BE05C04F004FA337A012B7FF6F6AE1E
:10544000737B012B87D9B37B1C44607804F0F8F997
:10545000002407F134037C62FC62C7E91E44C7E9FB
:1054600020447B6798E60023D0E76B6A002BCED000
:10547000484605A9FEF796FE044619E71A46614616
:10548000686A0CF060FDD5E90932A96FE967521A24
:105490000B44C5E90932E9E7FD5000003551000031
:1054A00003681B8CDB071CD5037A012B16D910B5BA
:1054B000437B84B000F10C040BB91B78FFDE0B4674
:1054C000817B605C91060CBF0124002401A9CDE919
:1054D00001320394FEF752FE04B010BD00235B7846
:1054E000FFDE0820704700BF0368D3F880007047D4
:1054F0000368986F704700BF70B50468258CEB0790
:1055000082B027D5656A16462DB1E26A002A36D0E8
:10551000112002B070BDA36F93421ED2C4E90912DC
:10552000027A012A29D9467B012E00F10C0222D9E8
:10553000807B1D4E0096024404F10C0056780190C9
:1055400013BB30466946FEF72DFE002808BF9220A7
:1055500002B070BD082002B070BD0846616F0CF04B
:10556000F2FCD4E91D32921B3344C4F88060284613
:10557000C4E91D32CDE72B78FFDE6B78FFDE922089
:10558000C4E90B1602B070BD1A460846616F0CF0F4
:10559000DAFCD4E90932A16FE167521A0B44A5671E
:1055A000C4E90932CDE700BFFD500000002070477C
:1055B0002DE9F04F4B6885B0002B75D00D46144691
:1055C000CDE9000203F0B2FDEE68A64228BF2646F0
:1055D0008246002E00F081804FF000094A46CB46FB
:1055E0004FF0010814E00AEB020022460CF0ABFC7D
:1055F000D5E902321B1B141BC5F804B0C5E90234FF
:105600002BB3002C08BF4FF000083A46002E38D0CC
:10561000D5E90113B3421C4628BF3446361BA718F0
:105620000029E0D193B12846524450F8101B4B6832
:10563000D3F804902346C847D5E902321B1B141B3C
:10564000C5E902342BB34FF00109DAE7EC68B9F190
:10565000000F1ED134B32968002935D0CDF808B029
:1056600003E0AB6829680133AB604B6800225C68DB
:1056700002A80123A0470028F3D128613A46002E52
:10568000C6D1009BC3F800A05F60404605B0BDE8EE
:10569000F08F2B681B68196829608CB9A0464FF001
:1056A0000109B2E7C846B0E70B681B681B68002B0E
:1056B00084D18B68002B81D1C0E900339846E4E7A0
:1056C0004FF001090029C9D16960002FD9D0019B91
:1056D000BB4288BF4FF00008D3E737464FF00108C0
:1056E000CFE700BF08B50020FEF7DAFC8020BDE858
:1056F0000840FEF7D5BC00BF08B50020FEF7E0FC6F
:105700008020BDE80840FEF7DBBC00BF70B5C38851
:1057100093421D4628BF1546934284B00E461DD8BD
:10572000002200200392CDE9016500F075FB01A97C
:105730008020FEF723FD044628B1002000F074FB12
:10574000204604B070BD03F0F1FD802812D0002087
:1057500000F06AFB1024204604B070BD802014467F
:1057600003F0E4FBB4FBF0F303FB1042B2FA82F265
:105770005209D6E7054A064B92E8030083E8030086
:10578000002000F051FB204604B070BD543A0100E7
:10579000A80C00202DE9F04F0B78062B87B07BD0AA
:1057A00010D90D2B69D02AD80B2B06D00C2B2FD15A
:1057B000B54A1378002B40F09F800024204607B0A4
:1057C000BDE8F08F022BF8D045D9032B25D0052B4F
:1057D0001ED10DF10D008DF80C3003F045FD9DF844
:1057E0000D20AA4D002102F01F032960032B00F2B7
:1057F0003C81DFE813F01301E200B500AE000E2B90
:1058000019D0852B04D1A04B1A78032A00F02F81E0
:105810000624204607B0BDE8F08F9D4800F0C2FC8A
:105820000028CAD09B4B01221A60BFF36F8FBFF3D1
:105830004F8F0024C2E7944B1A78012ABDD09649B5
:1058400096480A78012422F002021C700A70002493
:10585000FDF76CFFB2E7012BDAD18B4B1A78032AE4
:10586000D6D08D498D480A78032422F002021C709C
:105870000A700624FDF75AFFA0E74FF08042824BE2
:10588000D2F838141A78C90732D5022A95D082493D
:1058900082480A780224D6E7C87803280D46B7D094
:1058A0007A4E3368002B00F00B8100223260716861
:1058B00098470446C8B93368002B00F0DD80AB7808
:1058C000002B7FF47AAF03F0F5FC77E76E4C23787A
:1058D000043B012B00F2F6809DF80F30002B00F006
:1058E0006A81012B00F07881072403F015FD65E73C
:1058F000012A3FF462AFA2E7674C68482178002391
:1059000021F00201217013701C46FDF70FFF55E7CF
:10591000062900F01E81082900F00A81C9B9604CEF
:10592000022220460CF033FB5B4A2378127896075C
:1059300043F0010148BF43F0030321700DF10D0056
:1059400048BF237002225649FFF7E0FE0446062CAA
:1059500003D103A8FEF7FCFB0446002C7CD0C4E76F
:105960009DF81100040707D003A9FEF7DBFB06280A
:105970000446F2D19DF80D2012F0600F75D19DF80C
:105980000E30414A9DF811401278012B00F09C80A6
:10599000C0F0AD80032B68D104F00F03072B64D84F
:1059A000BDF80F10002960D1052A02D0002B40F06D
:1059B0008980204603F0BEFB4EE001A99DF811004E
:1059C000FEF786FB0646002872D003AA9DF8041055
:1059D000FEF7A4FB06280446BFD19DF80D3013F056
:1059E000600F82D1284A9DF8041012789DF80EC0ED
:1059F000DF0940F0C380BCF10B0F7FF476AF052ABE
:105A000060D1BDF80F30FF2B3FF66EAF30469DF8EA
:105A10000F20FEF7DBFB0446F4B166E7C2F3411446
:105A2000002C96D1D2099DF80E107FF471AF032996
:105A30006FD009293FF44AAF01298AD1BDF80F3050
:105A4000012B86D1FEF724FB002800F0B280124A19
:105A5000137823F0020313702B682BB303F066FC5A
:105A6000044600287FF4A9AE2DE706243DE70A4945
:105A70000A480A780424F8E60A4B1B68082B19D058
:105A800003F040FC9AE600BF880C0020A80C002020
:105A9000B00C00205C700240A40C00201C3A0100F5
:105AA000B40C00203001001003F02CFC002485E62B
:105AB00010241AE7924B1B68002B3FF47EAEDFE701
:105AC0000E2412E7082410E704F00F03072BCCD8AC
:105AD000BDF80F100029C8D1052A01D0002BF1D143
:105AE000204603F0B1FB204603F030FBB4E7052A63
:105AF00001D02007E6D1204603F084FB8149022231
:105B000008800DF10D00FFF701FE0446002CA3D024
:105B1000EBE6BDF80F30012B7FF41BAFFEF7B8FAB0
:105B2000002846D0784A137843F00203137093E7B5
:105B300076490978052939D004297FF40AAF714ADA
:105B400014700DF10D0001226E49FFF7DFFD0446D0
:105B5000FDE69DF81020022A60D0032A48D0012AD1
:105B60007FF4F7AEBDF81330002B9DD00DF10D0082
:105B700012226749FFF7CAFD0446E8E6BCF1000FB0
:105B800072D0BCF10A0F7FF4B0AE052A9AD130462C
:105B9000FEF75CFB5B493A4608700DF10D00FFF71C
:105BA000B5FD0446002C3FF457AF9EE6554B1A70E6
:105BB000C7E70F2499E6FEF7B5FB2378042B3FF4E3
:105BC0004BAF514A53481378042123F0020313705A
:105BD0002170FDF7ABFD3FE7FEF73EFB2378052B79
:105BE0003FF43AAF05234B482370FDF79FFD33E7A1
:105BF000BDF81330002B3FF457AFBDF811109DF8DE
:105C00000F0000F0D5F8014600283FF4A2AE0DF1D8
:105C10000D000A78FFF77AFD044698E6BDF81320D8
:105C2000002A3FF441AF092A28BF09229046FEF717
:105C300049FAA34606464FF0090A36B3CDF804B038
:105C4000002700E0013772680123D2F80490314642
:105C5000002201A8C8470028F4D1337A32682344CF
:105C60001668BA44DCB2E8E7052A7FF42BAF254B6F
:105C70000DF10D0019460222A3F800C0FFF746FD02
:105C80000446002C3FF4E8AE2FE61E4E2249304673
:105C900042460CF058F93471A6F802A0FEF7F8F964
:105CA00018B1F37943F02003F371FEF70BFA1B4BA5
:105CB000BDF8132018600020C3E90168DA6000F025
:105CC000ABF817498020FEF76DFA044630B100208A
:105CD00000F0AAF8062C7FF408AE3AE603F026FBA3
:105CE000802804D0204600F09FF81024FDE50D4BDD
:105CF00093E8030085E80300204600F095F8ABE642
:105D000034010010B40C0020A40C0020880C0020EA
:105D1000403A01001C3A0100203A01008C0C00209E
:105D20006C3A0100543A010038B505460C4603F0C0
:105D3000FDFAA84207D194E80300044A82E8030070
:105D40000023184638BD1023184638BDA80C002083
:105D500008B1402303600148704700BFB40C002025
:105D600070B54FF0805286B0D2F8A830D2F8A42097
:105D700000926FEA83436FEA93439BB202A80A4AF8
:105D80000A4E0D210CF0C4F902AD002404E015F810
:105D9000013B06F8013B013402A80CF043FA8442AF
:105DA000F5D306B070BD00BF743A0100583400202E
:105DB00068B1052823D8154B185CF8B1144B10B501
:105DC00053F82040ECB123781BB9A01C10BD11483A
:105DD00070470020FFF7BCFF2278A2B100230133F7
:105DE000DBB220F8132014F8012F002AF7D1013379
:105DF0005B00DBB243F44073038010BD70470020AA
:105E00007047204610BD40F20233F5E7DC3A01004E
:105E1000C43A0100823A010072B6024A13680133A3
:105E200013607047F40C0020034A1368013B1360B1
:105E300003B962B6704700BFF40C00201EF0040FD7
:105E40001CBFEFF309800AE0EFF308800549064A1A
:105E5000884201D8904202D88D464FF00000034B93
:105E6000184700000000042000E00320955E0000B9
:105E7000BFF34F8F0549064BCA6802F4E062134333
:105E8000CB60BFF34F8F00BFFDE700BF00ED00E028
:105E90000400FA052DE9F04F83B08146FCF7B4FD0C
:105EA000FCF730FD0028FBD1444F454B454CDFF853
:105EB0003481A56AB8F80220FF1AFF083F0447F0B2
:105EC0000107B9F1000F70D0002A41D13D4BDB6AC8
:105ED000DFF814B1DFF814A10024012602E0013438
:105EE0001A2C12D006FA04F32B42F8D05BF82420C7
:105EF000002AF4D0B8F80230002BF0D051463846D2
:105F00000134FCF733FA1A2CECD12A060ED5B8F876
:105F100002302BB94846FFF7ABFF03B0BDE8F08F66
:105F2000284B29495A6B3846FCF720FA2B04F1D547
:105F3000B8F80230002BEDD0224B24499A6B38463A
:105F4000FCF714FA4846FFF793FF03B0BDE8F08F63
:105F5000D9F818201E493846FCF708FAB8F802307C
:105F600053B3D9E90210D9E90023CDE9001019494A
:105F70003846FCF7F5FAB8F80230002BA6D0D9F86D
:105F80001C10D9E90423384600911349FCF766FA3E
:105F90000C4BDB6A99079BD5B8F80230002B97D0E1
:105FA0000E493846FCF720F892E7002A8ED00C49BB
:105FB0003846FCF719F8EBE7E36A89E7207A010035
:105FC000B079010000ED00E0E03B0100003C010081
:105FD000E43A0100FC3A0100343B0100903B01002F
:105FE0005C3B0100600200201C3C0100D43B01002E
:105FF00099B110B4B2FBF3F403FB1424A4B244B976
:10600000C0E9001484608281C38120465DF8044B9E
:10601000704709205DF8044B70470E20704700BFA1
:1060200030B482B050E8013F9DB2C48925448489D0
:10603000A54228BF2D1B0489A54202BFBFF32F8FA5
:10604000002207E0C5EA030540E80154002CE9D12D
:106050004FF001028DF803200193019B9DF803206E
:106060000B602AB10B880068184402B030BC70473E
:1060700002F0FF031846F8E70A884B889A4201D0DD
:106080000020704750E8012FC2EA024240E8012395
:10609000002BF7D10120704730B482B050E8023FA6
:1060A0001FFAA3F5C488A54202BFBFF32F8F0022B9
:1060B0000DE0C48925448489A54228BF2D1BC3EA6D
:1060C000054540E80254002CE8D14FF001028DF85C
:1060D00003200193019B9DF803200B602AB14B889C
:1060E0000068184402B030BC704702F0FF03184645
:1060F000F8E700BF0A884B889A4201D00020704719
:1061000050E8022FC2EA224240E80223002BF7D1D6
:106110000120704750E8002F0B4640E8003C9CF0FF
:10612000000FF7D11046704750E8003F03EA010224
:1061300040E8002C9CF0000FF6D11046704700BFDD
:1061400050E8003F03EB010240E8002C9CF0000FF8
:10615000F6D11046704700BF50E8003FA3EB0102A4
:1061600040E8002C9CF0000FF6D11046704700BFAD
:1061700050E8003F8B422CBF5A1A1A4640E8002CC8
:106180009CF0000FF4D11046704700BF012350E887
:10619000002F42EA030C40E800C191F0000FF6D155
:1061A00060467047002350E800CF0CEA030240E845
:1061B000002191F0000FF6D1604670472DE9F043C1
:1061C0008368D3F83C61C6F340068BB0002E47D1FC
:1061D00001293ED8264C274D274B2D1BAD08A3FB8C
:1061E0000535002D32D0C5EBC505DFF89490074684
:1061F00004EB85054FF064082368A1681A791868D4
:106200006369099363680692081A02EB8202A1EBA4
:10621000030CC0B2218B039002EB82020091019625
:10622000920008FB00F0B2FBFCF2B0FBFCF0059220
:106230000290CDF81CC0CDF810C0099B1C344A4612
:106240000821384600F056FBA542D5D10BB0BDE879
:10625000F0830A4A02210BB0BDE8F04300F04ABBCC
:10626000002211460BB0BDE8F04300F00FBE00BFA6
:10627000887A0100A47A0100254992248C4101000A
:10628000A0410100B8B130B4D0E90112521A04683B
:10629000D2B2531E2160DBB242B101680A685C1EB3
:1062A000551C0D601370E3B2FF2BF6D1036800207C
:1062B000187130BC70470E20704700BF38B50446D7
:1062C0000020FFF7A9FDD4E900311A688A4215D9E8
:1062D000511E19602168A3680868258B12F8012CEB
:1062E000E4681B1A0879DBB2984205FB024400D22D
:1062F0000B710020FFF798FD204638BD0024F8E719
:1063000038B5054600200C46FFF786FD2A6813685D
:10631000591C1160E9682A8B641AB4FBF2F41C70F2
:106320000020BDE83840FFF77FBD00BF2DE9F041F8
:10633000054680684B4F82B000268022314694305B
:106340008DF803600BF023FE2869474900F03AFFFF
:10635000286900F02BFF47F001074FF47A7868684E
:10636000036801221C690DF1030101ABA047019BE9
:106370004FF6C01063B9B847019B002BEFD108F16D
:10638000FF381FFA88F8B8F1000FE8D10D2018E0A7
:106390009DF80330AA681B2B06F1010002EB0601F1
:1063A00005D092F894401B2CD9D1522B0CD0C6B2F8
:1063B000092E81F89430D2D9AB68002283F894205A
:1063C000042002B0BDE8F081002681F89460AF6837
:1063D00097F895305B2B3AD107F19504022302E040
:1063E000802B96B239D014F8010F0133A0F130019F
:1063F00006EB8602DBB23B2801EB420259B2EFD139
:1064000000292ADB03F1930CBC44002002E090B287
:106410001A0622D41CF8014F00EB80020133A4F1CC
:10642000300101EB4202DBB2002CF0D1FA2828BF88
:10643000FA203872AB68FA2E86BFFA229A729E72E0
:10644000AB68002083F8940002B0BDE8F0810B2017
:1064500087F8946002B0BDE8F0810C2002B0BDE87E
:10646000F08100BFD0420100A8420100002900F0E5
:10647000D5802DE9F04F8B4685B0924607464C1EDD
:10648000002600E001360BF02FFD14F8013F184400
:1064900043781B07F6D45FFA8AF3019358460BF052
:1064A000C1FEBB6893F80D80801BA8EB0A0840452D
:1064B0005ED906F1FF39D944002400E001340BF025
:1064C00013FD19F8013F18440AEB04014278100744
:1064D00006EB040502D50A2B07D0A046BB685B7B00
:1064E0009942EBD306EB08054446386900F05EFE9E
:1064F00014B303AB4FF00008009599467868036821
:1065000006EB0801DD6822464B465944A847039B29
:106510009844E41A6BB9BA681378032B09D0D2F8FF
:106520003C319906FBD592F83C316FF3451382F864
:106530003C31002CE2D1009D6C1E5C4400E0013532
:106540000BF0D2FC14F8013F184443781B07F6D433
:10655000354A3649386900F035FE019B0BB92E46A5
:106560009CE71A463249386900F02CFE2E4695E722
:1065700003460BEB060838697BB11BF806200A2A94
:106580004DD04246002403E012F8011F0A290FD023
:106590000134A34206EB0405F6D1414600F012FE99
:1065A0003869214A214900F00DFE05B0BDE8F08FA1
:1065B00000F0FCFD4FF000080DF10C0AA9467868C8
:1065C000036808EB0601DD68224653465944A84794
:1065D000039B9844E41A6BB9BA681378032B09D06B
:1065E000D2F83C319D06FBD592F83C316FF3451350
:1065F00082F83C31002CE2D14D460B4A0B493869F8
:1066000000F0E0FD019B01350BEB050823B11A46B4
:106610000749386900F0D6FD3869BEE7704700F0D9
:10662000C5FD3546E9E700BF8C420100C8450100C1
:10663000D84201000CB430B585B008AB816853F87E
:10664000045B0193D1F83C315B07044602D5CB7B58
:10665000082B09D12946206901AA00F049FE05B09E
:10666000BDE8304002B0704702220F3168460BF09F
:106670006AFCA368DA7B082A29D101AA2946206985
:1066800000F036FE9DF80030A268002B3ED0D17B92
:10669000994228D19DF80130002BE0D0A268117CEE
:1066A0009942DCD045F61B3103F12F00ADF80810FC
:1066B00034256D218DF80B00ADF80C108DF80A50C3
:1066C00013742069154902AA00F07CFDC7E7144A3B
:1066D0000292144903910822DA7320690F496A442F
:1066E00000F070FDC9E70E49029103F12F00332538
:1066F0006D218DF80D00ADF80E108DF80C50D37390
:106700002069064902AA00F05DFDC3E7D373206942
:10671000054A024900F056FDBCE700BFC84501002C
:106720001B5B313B33376D00904201002DE9F04790
:10673000064686B055480BF075FD044654480BF0EC
:1067400071FDB36853495B68534A1B680091241A72
:1067500008213046FFF76EFFB3685B681868A4B283
:10676000002800F090800BF05DFD85B249480BF0E9
:1067700059FDB3685B682844596882B23046FFF718
:1067800075FE464A08213046FFF754FF40480BF09B
:1067900049FD02300444A4B23C4B0093404A2346D6
:1067A00008213046FFF746FFE21C92B23D493046D1
:1067B000FFF75CFEB3685B689C68002C3BD000234D
:1067C0001D4694F800C0626802A918465F1CBCF11F
:1067D000000F11D090470298A0B10DF108080BF0FE
:1067E00021FDA84206D9D8F80050284615B10BF073
:1067F00019FD85B23B46E4E71B0102EB0308D058C4
:106800000028ECD1012F16D0274ADFF894A00821E8
:106810003046FFF70FFF2278636805F102094FF059
:1068200000081FFA89F902A94046FAB94FEA08128E
:106830009F189B581BB906B0BDE8F08702AF08212E
:10684000009352464B463046FFF7F4FE7B686A1DC4
:1068500092B21946304683B1FFF708FE227863688A
:1068600008F1010802A94046002ADFD09847029BA0
:10687000002BE3D106B0BDE8F0870C4A0C49306923
:1068800000F0A0FCEAE7054670E700BFE042010027
:10689000E4450100B042010018450100DC4401005C
:1068A000E8440100F0440100044501008C4201006D
:1068B000C8450100022910B5044604D18368D3F805
:1068C0003C319B070BD42069074A084900F07AFC49
:1068D0002069074A0549BDE8104000F073BCBDE8D7
:1068E0001040FFF723BF00BF94420100C8450100DC
:1068F000984201000CB470B584B008AB826853F8BC
:10690000046B0193D2F83C315B07044603D5D37B7B
:106910008B420D4609D13146206901AA00F0E8FCFE
:1069200004B0BDE8704002B0704702F10F01684644
:1069300002220BF008FBA368002D59D0DA7BAA4293
:106940003CD101AA3146206900F0D2FC9DF800300C
:10695000A268002B45D0D17B99421CD19DF8013013
:10696000002BDDD0A268117C9942D9D045F61B31AD
:1069700003F12F00ADF8081034256D218DF80B00C0
:10698000ADF80C108DF80A50137420691C4902AA46
:1069900000F018FCC4E71B49029103F12F003325D6
:1069A0006D218DF80D00ADF80E108DF80C50D373DD
:1069B0002069134902AA00F005FCCFE7114A0292B0
:1069C000332205F12F018DF80C206D228DF80D106A
:1069D000ADF80E20DD732069094902AA00F0F2FB30
:1069E000AFE7D3732069084A054900F0EBFBB5E730
:1069F000DD732069044A024900F0E4FBA1E700BF0F
:106A0000C84501001B5B313B9042010001290AD0BF
:106A1000022904D18368D3F83C319B0703D4034A8D
:106A20000221FFF767BFFFF781BE00BF704501007D
:106A300010B5012982B004460BD002290B460ED0B6
:106A40008268D2F83C11890703D4022B11D802B016
:106A500010BD204602B0BDE81040FFF767BED2E986
:106A60000034084ACDE90024074AFFF743FF02B08B
:106A700010BD5368054A1B68022102B0BDE81040F2
:106A8000FFF738BF7433010068330100244401006C
:106A9000F0B58368D3F83C41C4F3400487B08CBBA5
:106AA000012927D1D3F83451FDB1184F06462846A5
:106AB0000023092203A900F097FF9DF81420B16874
:106AC000284601329431092300F08EFFB368049DFB
:106AD000943300933A462346082130460134FFF7A9
